{
  "contractName": "TasksContract",
  "abi": [
    {
      "inputs": [],
      "stateMutability": "nonpayable",
      "type": "constructor"
    },
    {
      "anonymous": false,
      "inputs": [
        {
          "indexed": false,
          "internalType": "uint256",
          "name": "id",
          "type": "uint256"
        },
        {
          "indexed": false,
          "internalType": "string",
          "name": "title",
          "type": "string"
        },
        {
          "indexed": false,
          "internalType": "string",
          "name": "description",
          "type": "string"
        },
        {
          "indexed": false,
          "internalType": "bool",
          "name": "done",
          "type": "bool"
        },
        {
          "indexed": false,
          "internalType": "uint256",
          "name": "createdAt",
          "type": "uint256"
        }
      ],
      "name": "TaskCreated",
      "type": "event"
    },
    {
      "anonymous": false,
      "inputs": [
        {
          "indexed": false,
          "internalType": "uint256",
          "name": "id",
          "type": "uint256"
        },
        {
          "indexed": false,
          "internalType": "bool",
          "name": "done",
          "type": "bool"
        }
      ],
      "name": "TaskToggleDone",
      "type": "event"
    },
    {
      "inputs": [],
      "name": "taskCounter",
      "outputs": [
        {
          "internalType": "uint256",
          "name": "",
          "type": "uint256"
        }
      ],
      "stateMutability": "view",
      "type": "function",
      "constant": true
    },
    {
      "inputs": [
        {
          "internalType": "uint256",
          "name": "",
          "type": "uint256"
        }
      ],
      "name": "tasks",
      "outputs": [
        {
          "internalType": "uint256",
          "name": "id",
          "type": "uint256"
        },
        {
          "internalType": "string",
          "name": "title",
          "type": "string"
        },
        {
          "internalType": "string",
          "name": "description",
          "type": "string"
        },
        {
          "internalType": "bool",
          "name": "done",
          "type": "bool"
        },
        {
          "internalType": "uint256",
          "name": "createAt",
          "type": "uint256"
        }
      ],
      "stateMutability": "view",
      "type": "function",
      "constant": true
    },
    {
      "inputs": [
        {
          "internalType": "string",
          "name": "_title",
          "type": "string"
        },
        {
          "internalType": "string",
          "name": "_description",
          "type": "string"
        }
      ],
      "name": "createTask",
      "outputs": [],
      "stateMutability": "nonpayable",
      "type": "function"
    },
    {
      "inputs": [
        {
          "internalType": "uint256",
          "name": "_id",
          "type": "uint256"
        }
      ],
      "name": "toggleDone",
      "outputs": [],
      "stateMutability": "nonpayable",
      "type": "function"
    }
  ],
  "bytecode": "0x6080604052600080553480156200001557600080fd5b50620000926040518060400160405280600d81526020017f546172656120656a656d706c6f000000000000000000000000000000000000008152506040518060400160405280600881526020017f58445844584458440000000000000000000000000000000000000000000000008152506200009860201b60201c565b62000498565b6040518060a00160405280600054815260200183815260200182815260200160001515815260200142815250600160008054815260200190815260200160002060008201518160000155602082015181600101908051906020019062000100929190620001b0565b5060408201518160020190805190602001906200011f929190620001b0565b5060608201518160030160006101000a81548160ff02191690831515021790555060808201518160040155905050600160008082825462000161919062000299565b925050819055507f6549102bed7d1bb5ec529ee14e2ca60ffc1f47f66d4cc6ca713220613cc64c256000548383600042604051620001a4959493929190620003c8565b60405180910390a15050565b828054620001be9062000462565b90600052602060002090601f016020900481019282620001e257600085556200022e565b82601f10620001fd57805160ff19168380011785556200022e565b828001600101855582156200022e579182015b828111156200022d57825182559160200191906001019062000210565b5b5090506200023d919062000241565b5090565b5b808211156200025c57600081600090555060010162000242565b5090565b6000819050919050565b7f4e487b7100000000000000000000000000000000000000000000000000000000600052601160045260246000fd5b6000620002a68262000260565b9150620002b38362000260565b9250827fffffffffffffffffffffffffffffffffffffffffffffffffffffffffffffffff03821115620002eb57620002ea6200026a565b5b828201905092915050565b620003018162000260565b82525050565b600081519050919050565b600082825260208201905092915050565b60005b838110156200034357808201518184015260208101905062000326565b8381111562000353576000848401525b50505050565b6000601f19601f8301169050919050565b6000620003778262000307565b62000383818562000312565b93506200039581856020860162000323565b620003a08162000359565b840191505092915050565b60008115159050919050565b620003c281620003ab565b82525050565b600060a082019050620003df6000830188620002f6565b8181036020830152620003f381876200036a565b905081810360408301526200040981866200036a565b90506200041a6060830185620003b7565b620004296080830184620002f6565b9695505050505050565b7f4e487b7100000000000000000000000000000000000000000000000000000000600052602260045260246000fd5b600060028204905060018216806200047b57607f821691505b6020821081141562000492576200049162000433565b5b50919050565b610adf80620004a86000396000f3fe608060405234801561001057600080fd5b506004361061004c5760003560e01c8063292a458514610051578063586717301461006d5780638d9776721461008b578063d81ef739146100bf575b600080fd5b61006b60048036038101906100669190610791565b6100db565b005b6100756101eb565b6040516100829190610822565b60405180910390f35b6100a560048036038101906100a09190610869565b6101f1565b6040516100b6959493929190610939565b60405180910390f35b6100d960048036038101906100d49190610869565b610344565b005b6040518060a001604052806000548152602001838152602001828152602001600015158152602001428152506001600080548152602001908152602001600020600082015181600001556020820151816001019080519060200190610141929190610594565b50604082015181600201908051906020019061015e929190610594565b5060608201518160030160006101000a81548160ff02191690831515021790555060808201518160040155905050600160008082825461019e91906109c9565b925050819055507f6549102bed7d1bb5ec529ee14e2ca60ffc1f47f66d4cc6ca713220613cc64c2560005483836000426040516101df959493929190610939565b60405180910390a15050565b60005481565b600160205280600052604060002060009150905080600001549080600101805461021a90610a4e565b80601f016020809104026020016040519081016040528092919081815260200182805461024690610a4e565b80156102935780601f1061026857610100808354040283529160200191610293565b820191906000526020600020905b81548152906001019060200180831161027657829003601f168201915b5050505050908060020180546102a890610a4e565b80601f01602080910402602001604051908101604052809291908181526020018280546102d490610a4e565b80156103215780601f106102f657610100808354040283529160200191610321565b820191906000526020600020905b81548152906001019060200180831161030457829003601f168201915b5050505050908060030160009054906101000a900460ff16908060040154905085565b6000600160008381526020019081526020016000206040518060a00160405290816000820154815260200160018201805461037e90610a4e565b80601f01602080910402602001604051908101604052809291908181526020018280546103aa90610a4e565b80156103f75780601f106103cc576101008083540402835291602001916103f7565b820191906000526020600020905b8154815290600101906020018083116103da57829003601f168201915b5050505050815260200160028201805461041090610a4e565b80601f016020809104026020016040519081016040528092919081815260200182805461043c90610a4e565b80156104895780601f1061045e57610100808354040283529160200191610489565b820191906000526020600020905b81548152906001019060200180831161046c57829003601f168201915b505050505081526020016003820160009054906101000a900460ff1615151515815260200160048201548152505090508060600151158160600190151590811515815250508060016000848152602001908152602001600020600082015181600001556020820151816001019080519060200190610508929190610594565b506040820151816002019080519060200190610525929190610594565b5060608201518160030160006101000a81548160ff021916908315150217905550608082015181600401559050507f389dee00d487dd41dd5bf0f43eeaa5b663b3af022d52368df89d388150295f45828260600151604051610588929190610a80565b60405180910390a15050565b8280546105a090610a4e565b90600052602060002090601f0160209004810192826105c25760008555610609565b82601f106105db57805160ff1916838001178555610609565b82800160010185558215610609579182015b828111156106085782518255916020019190600101906105ed565b5b509050610616919061061a565b5090565b5b8082111561063357600081600090555060010161061b565b5090565b6000604051905090565b600080fd5b600080fd5b600080fd5b600080fd5b6000601f19601f8301169050919050565b7f4e487b7100000000000000000000000000000000000000000000000000000000600052604160045260246000fd5b61069e82610655565b810181811067ffffffffffffffff821117156106bd576106bc610666565b5b80604052505050565b60006106d0610637565b90506106dc8282610695565b919050565b600067ffffffffffffffff8211156106fc576106fb610666565b5b61070582610655565b9050602081019050919050565b82818337600083830152505050565b600061073461072f846106e1565b6106c6565b9050828152602081018484840111156107505761074f610650565b5b61075b848285610712565b509392505050565b600082601f8301126107785761077761064b565b5b8135610788848260208601610721565b91505092915050565b600080604083850312156107a8576107a7610641565b5b600083013567ffffffffffffffff8111156107c6576107c5610646565b5b6107d285828601610763565b925050602083013567ffffffffffffffff8111156107f3576107f2610646565b5b6107ff85828601610763565b9150509250929050565b6000819050919050565b61081c81610809565b82525050565b60006020820190506108376000830184610813565b92915050565b61084681610809565b811461085157600080fd5b50565b6000813590506108638161083d565b92915050565b60006020828403121561087f5761087e610641565b5b600061088d84828501610854565b91505092915050565b600081519050919050565b600082825260208201905092915050565b60005b838110156108d05780820151818401526020810190506108b5565b838111156108df576000848401525b50505050565b60006108f082610896565b6108fa81856108a1565b935061090a8185602086016108b2565b61091381610655565b840191505092915050565b60008115159050919050565b6109338161091e565b82525050565b600060a08201905061094e6000830188610813565b818103602083015261096081876108e5565b9050818103604083015261097481866108e5565b9050610983606083018561092a565b6109906080830184610813565b9695505050505050565b7f4e487b7100000000000000000000000000000000000000000000000000000000600052601160045260246000fd5b60006109d482610809565b91506109df83610809565b9250827fffffffffffffffffffffffffffffffffffffffffffffffffffffffffffffffff03821115610a1457610a1361099a565b5b828201905092915050565b7f4e487b7100000000000000000000000000000000000000000000000000000000600052602260045260246000fd5b60006002820490506001821680610a6657607f821691505b60208210811415610a7a57610a79610a1f565b5b50919050565b6000604082019050610a956000830185610813565b610aa2602083018461092a565b939250505056fea26469706673582212206621ffc3a839dec87516d6d75b50f7733f9d7fbec69540e55883d63c1be5ae7564736f6c634300080c0033",
  "immutableReferences": {},
  "source": "// SPDX-License-Identifier: MIT\r\npragma solidity >=0.4.22 <0.9.0;\r\n\r\ncontract TasksContract {\r\n    uint256 public taskCounter = 0;\r\n\r\n    constructor() {\r\n        createTask(\"Tarea ejemplo\", \"XDXDXDXD\");\r\n    }\r\n\r\n    struct Task {\r\n        uint256 id;\r\n        string title;\r\n        string description;\r\n        bool done;\r\n        uint256 createAt; // Las fechas son manejadas en formato timestamp\r\n    }\r\n\r\n    // mapping: conjunto de datos que contienen clave valor.\r\n    mapping(uint256 => Task) public tasks;\r\n\r\n    // Event: Los oventos hacen referencia a algo que ya paso y describe lo que regresa\r\n    event TaskCreated(\r\n        uint256 id,\r\n        string title,\r\n        string description,\r\n        bool done,\r\n        uint256 createdAt\r\n    );\r\n\r\n    event TaskToggleDone(\r\n        uint id,\r\n        bool done\r\n    );\r\n\r\n    // FUNCIONES:\r\n    // - _var:      Hacer saber a la ()=> que seran parametros internos.\r\n    // - public:    Hacer la funciones publicas en la blockchain\r\n    // - memory:    Datos no persistentes\r\n    // - storage:   Datos guardados directamente en la blockhain\r\n\r\n    function createTask(string memory _title, string memory _description)\r\n        public\r\n    {\r\n        // - block: Hace referencia al bloque en el que se esta ejecutando.\r\n        tasks[taskCounter] = Task(\r\n            taskCounter,\r\n            _title,\r\n            _description,\r\n            false,\r\n            block.timestamp\r\n        );\r\n        taskCounter += 1;\r\n\r\n        emit TaskCreated(\r\n            taskCounter,\r\n            _title,\r\n            _description,\r\n            false,\r\n            block.timestamp\r\n        );\r\n    }\r\n\r\n    function toggleDone(uint256 _id) public {\r\n        Task memory _task = tasks[_id];\r\n        _task.done = !_task.done;\r\n        tasks[_id] = _task;\r\n\r\n        emit TaskToggleDone(_id, _task.done);\r\n    }\r\n}\r\n",
  "sourcePath": "D:\\Data\\Ethereum\\Examples\\myfristcontract\\contracts\\TasksContract.sol",
  "compiler": {
    "name": "solc",
    "version": "0.8.12+commit.f00d7308.Emscripten.clang"
  },
  "schemaVersion": "3.4.5",
  "updatedAt": "2022-03-27T17:31:02.166Z",
  "networkType": "ethereum",
  "devdoc": {
    "kind": "dev",
    "methods": {},
    "version": 1
  },
  "userdoc": {
    "kind": "user",
    "methods": {},
    "version": 1
  }
}